S010000046696E616C706A742E73726563DC
S113000071C000008EC000008CC000008AC00000D7
S113001088C0000086C0000084C0000082C00000C8
S113002080C000007EC000007CC000007AC00000D8
S113003078C0000076C0000074C0000072C00000E8
S113004070C000006EC000006CC000006AC00000F8
S113005068C0000066C0000064C0000062C0000008
S113006060C000005EC000005CC000005AC0000018
S113007058C0000056C0000054C0000052C0000028
S113008050C000004EC000004CC000004AC0000038
S113009048C0000046C0000044C0000042C0000048
S11300A040C000003EC000003CC000003AC0000058
S11300B038C0000036C0000034C0000032C0000068
S11300C030C000002EC000002CC000002AC0000078
S11300D028C0000026C0000024C0000022C0000088
S11300E020C0000011241FBECFEFD1E2DEBFCDBF80
S11300F000E00CBF12E0A0E0B2E0E0E0FDE000E0D0
S11301000BBF02C007900D92AC35B107D9F722E0BE
S1130110ACE5B2E001C01D92AE35B207E1F7A5D05F
S1130120EDC56ECF1092B90088E48093B8000895AD
S1130130CF93C82F84D08EE48ED08C2F8CD087D0D0
S1130140CF910895CF93DF93C82FD82FD07F8D2FD1
S11301508D60EEDF8D2F8960EBDF85E18A95F1F705
S1130160000090E1C99FE00111248C2F8D60E0DF35
S11301708C2F8960DDDF87EC90E00197F1F700C0F8
S11301800000DF91CF910895CF93DF93C82FD82F2C
S1130190D07F8D2F8C60CCDF8D2F8860C9DF85E107
S11301A08A95F1F7000090E1C99FE00111248C2F9A
S11301B08C60BEDF8C2F8860BBDF87EC90E00197FA
S11301C0F1F700C00000DF91CF910895611103C0E1
S11301D08058DACF0895613019F48054D5CF08954A
S11301E0623019F48C56D0CF0895633011F48C52D8
S11301F0CBCF089581E0C8DF8FE39FE10197F1F74A
S113020000C00000089582E0BFDF8FE891E001970D
S1130210F1F700C0000088E2B7DFECDF86E0B4DF6E
S11302208CE0B2CF0895CF93DF93EC0188818823CB
S113023019F0219687DFFACFDF91CF91089584EAF0
S11302408093BC008091BC008823E4F7089584E97E
S11302508093BC0008958093BB0084EC8093BC0021
S11302608091BC008823E4F70895CF93DF93CDB742
S1130270DEB7C856D1400FB6F894DEBF0FBECDBF6F
S11302808FEF81B910920A0178944CDFBCDFB2DFA2
S113029060E080E09BDF80E092E0C5DF2FEF33ED8C
S11302A080E3215030408040E1F700C0000080E04E
S11302B009C081E007C082E005C083E003C080E09C
S11302C001C080E0811152C095DF60E080E07EDFF4
S11302D086E092E0A8DF61E080E078DF83E192E0ED
S11302E0A2DF80E0843698F4E82FF0E09F01220F2B
S11302F0331FE20FF31F21E030E02C0F3D1FE20F0C
S1130300F31F92E394AF95AF96AF8F5FEBCF64E6A4
S113031070E0CE01CD96D1D180E07DD1182F3FEF92
S113032081EE94E0315080409040E1F700C000003D
S113033081E071D12FEF31EE94E0215030409040B4
S1130340E1F700C0000091E0133008F090E0911153
S1130350B0CF91E0833008F090E09111AACF8FE301
S11303609CE90197F1F700C00000D6CF813009F075
S11303705DC010925D0210925C023CDF60E080E0A0
S113038025DF89E192E04FDF80E08436A0F4E82F96
S1130390F0E09F01220F331FE20FF31F21E030E052
S11303A02C0F3D1FE20FF31F92E394AF99E195AF39
S11303B016AE8F5FEACF64E670E0CE01CD967DD1B4
S11303C000E010E080E027D1F82E3FEF81EE94E0CA
S11303D0315080409040E1F700C0000081E01BD123
S11303E02FEF31EE94E0215030409040E1F700C00F
S11303F0000091E024E02F1508F090E0992349F0E3
S113040091E0853008F490E0992319F00F5F1F4FB5
S113041002C000E010E00330110508F04CCF8FE378
S11304209CE90197F1F700C00000CCCF823009F0BD
S113043081C0E0DE60E080E0C9DE81E292E0F3DECC
S113044080E0843698F4E82FF0E09F01220F331FF8
S1130450E20FF31F21E030E02C0F3D1FE20FF31FEA
S113046014AE92E395AF16AE8F5FEBCF64E670E007
S1130470CE01CD9622D180E0CED0F82E3FEF81EE92
S113048094E0315080409040E1F700C0000081E0EA
S1130490C2D0E82E2FEF31EE84E02150304080406E
S11304A0E1F700C0000080915C0290915D0201962A
S11304B090935D0280935C029DDE1F92FF9289E21D
S11304C092E09F938F939E012F5F3F4F69013F936B
S11304D02F9339D11F92EF9286E392E09F938F93EB
S11304E08E01015E1F4F1F930F932DD160E080E0BA
S11304F06DDEC60198DE61E080E068DEC80193DE4F
S113050081E00FB6F894DEBF0FBECDBF32E03F15D9
S113051008F480E08111D1CE81E092E09E1508F4C8
S113052080E08111CACE8FE39CE90197F1F700C006
S11305300000A1CF833009F0C2CE80E0843698F465
S1130540E82FF0E09F01220F331FE20FF31F21E099
S113055030E02C0F3D1FE20FF31F92E394AF15AE72
S113056016AE8F5FEBCF64E670E0CE01CD96A5D0DA
S113057041DE60E080E02ADE84E492E054DE809193
S11305805D028F9380915C028F9380E592E09F934C
S11305908F938E010F5F1F4F1F930F93D4D061E091
S11305A080E014DEC8013FDE3FEF83ED90E331507D
S11305B080409040E1F700C000000F900F900F9032
S11305C00F900F900F9000E010E0043011050CF034
S11305D078CE10DE2FEF39E688E12150304080409C
S11305E0E1F700C0000060E080E0F0DD84E492E028
S11305F01ADE61E080E0EADDCE01019614DE9FEFB1
S113060029E638E1915020403040E1F700C0000075
S11306100F5F1F4FDACF882319F0813061F015C0C6
S113062092B1916092B995E39A95F1F7000092B175
S11306309E7F92B90AC092B1926092B995E39A955D
S1130640F1F7000092B19D7F92B9882319F08130AF
S113065089F01FC08091090180FFFCCF10928500B2
S11306601092840082E0809381008091090180FDD2
S1130670FCCF0FC08091090184FFFCCF109285004C
S11306801092840082E0809381008091090184FDAE
S1130690FCCF88E080938100209184003091850014
S11306A0AFE9B6E441D096958795929582958F707F
S11306B089279F70892799270895FC0188B18F772E
S11306C088B987B1806887B9F894CB010197672B03
S11306D009F422C00190008007D0029005D0019057
S11306E00190019001D016C007D006D005D004D0E7
S11306F003D002D001D000C0479A001C00000000C3
S113070008F047980000000000000000000008F412
S113071047980895BC01D9CF78948FE391E001976D
S1130720F1F700C000000895A29FB001B39FC0017B
S1130730A39F700D811D1124911DB29F700D811D09
S11307401124911D08950F931F93CF93DF93CDB779
S1130750DEB72E970FB6F894DEBF0FBECDBF0E895D
S11307601F8986E08C831A8309838FEF9FE79E831A
S11307708D83AE01465E5F4F688D798DCE01019603
S113078010D0EF81F885E00FF11F10822E960FB67E
S1130790F894DEBF0FBECDBFDF91CF911F910F91B3
S11307A008952F923F924F925F926F927F928F9211
S11307B09F92AF92BF92CF92DF92EF92FF920F93EC
S11307C01F93CF93DF93CDB7DEB72B970FB6F89473
S11307D0DEBF0FBECDBF6C017B018A01FC01178215
S11307E01682838181FFBFC1CE0101963C01F601CF
S11307F09381F70193FD859193FF81917F01882374
S113080009F4ADC1853239F493FD859193FF81914B
S11308107F01853221F4B60190E0D6D1E8CF912C46
S1130820212C312CFFE1F315D8F08B3279F038F418
S1130830803279F08332A1F4232D20611DC08D32E2
S113084061F0803369F4232D216016C0832D82600A
S1130850382EE32DE4603E2E2AC0F32DF8601DC02F
S113086037FC2DC020ED280F2A3040F08E32B9F429
S113087036FC75C1232D2064322E19C036FE06C005
S11308808AE0989E200D1124922E11C0EAE02E9E3B
S1130890200D1124222EF32DF0623F2E08C08C3639
S11308A021F4832D8068382E02C0883641F4F70184
S11308B093FD859193FF81917F018111B3CF982F8F
S11308C09F7D9554933028F40C5F1F4F9FE39983C9
S11308D00DC0833631F0833771F0833509F055C08C
S11308E020C0F801808189830E5F1F4F8824839480
S11308F0912C530112C02801F2E04F0E511CF80153
S1130900A080B18036FE03C0692D70E002C06FEF95
S11309107FEFC5014ED14C018201F32DFF773F2EAD
S113092015C0280122E0420E511CF801A080B180BC
S113093036FE03C0692D70E002C06FEF7FEFC50182
S11309402DD14C01F32DF0683F2E820133FC19C0E8
S1130950822D90E088169906A0F4B60180E290E01A
S113096033D12A94F5CFF50137FC859137FE819177
S11309705F01B60190E028D121102A9421E0821A67
S113098091088114910479F7E1C0843611F0893615
S113099039F5F80137FE07C0608171818281938146
S11309A00C5F1F4F08C060817181072E000C880BFB
S11309B0990B0E5F1F4FF32DFF763F2E97FF09C053
S11309C090958095709561957F4F8F4F9F4FF068FC
S11309D03F2E2AE030E0A30133D1882E861844C08C
S11309E0853731F4232D2F7EB22E2AE030E025C046
S11309F0932D997FB92E8F36C1F018F4883579F08C
S1130A00AEC0803719F0883721F0A9C0E92FE06122
S1130A10BE2EB4FE0DC0FB2DF460BF2E09C034FE03
S1130A200AC0292F2660B22E06C028E030E005C097
S1130A3020E130E002C020E132E0F801B7FE07C057
S1130A4060817181828193810C5F1F4F06C0608138
S1130A50718180E090E00E5F1F4FA301F1D0882EDA
S1130A608618FB2DFF773F2E36FE0DC0232D2E7FDB
S1130A70A22E891458F434FE0BC032FC09C0832D15
S1130A808E7EA82E05C0B82CA32C03C0B82C01C0A0
S1130A90B92CA4FE0FC0FE01E80DF11D8081803346
S1130AA021F49A2D997EA92E09C0A2FE06C0B39402
S1130AB0B39404C08A2D867809F0B394A3FC10C0C3
S1130AC0A0FE06C0B21480F4280C922C9B180DC012
S1130AD0B21458F4B60180E290E076D0B394F8CF23
S1130AE0B21418F42B1802C0982C212CA4FE0FC0A9
S1130AF0B60180E390E068D0A2FE16C0A1FC03C05A
S1130B0088E790E002C088E590E0B6010CC08A2D29
S1130B10867851F0A1FE02C08BE201C080E2A7FCFE
S1130B208DE2B60190E050D0891430F4B60180E330
S1130B3090E04AD09A94F8CF8A94F301E80DF11D1D
S1130B408081B60190E040D08110F6CF222009F4D4
S1130B504ECEB60180E290E037D02A94F7CFF6016A
S1130B608681978102C08FEF9FEF2B960FB6F89482
S1130B70DEBF0FBECDBFDF91CF911F910F91FF90CC
S1130B80EF90DF90CF90BF90AF909F908F907F9029
S1130B906F905F904F903F902F900895FC010590C7
S1130BA0615070400110D8F7809590958E0F9F1F6B
S1130BB00895FC016150704001900110D8F78095B0
S1130BC090958E0F9F1F08950F931F93CF93DF93DC
S1130BD0FB01238121FD03C08FEF9FEF2CC022FF77
S1130BE016C046815781248135814217530744F446
S1130BF0A081B1819D012F5F3F4F318320838C936E
S1130C00268137812F5F3F4F3783268314C08B01A2
S1130C10EC01FB010084F185E02D1995892BE1F6A7
S1130C20D80116968D919C911797019617969C93CF
S1130C308E931697CE01DF91CF911F910F91089556
S1130C40FA01AA27283051F1203181F1E8946F93F9
S1130C506E7F6E5F7F4F8F4F9F4FAF4FB1E03ED09F
S1130C60B4E03CD0670F781F891F9A1FA11D680F3D
S1130C70791F8A1F911DA11D6A0F711D811D911D70
S1130C80A11D20D009F468943F912AE0269F1124E5
S1130C903019305D3193DEF6CF010895462F477049
S1130CA0405D4193B3E00FD0C9F7F6CF462F4F70A4
S1130CB0405D4A3318F0495D31FD4052419302D002
S1130CC0A9F7EACFB4E0A6959795879577956795A8
S1130CD0BA95C9F700976105710508959B01AC01A8
S1130CE00A2E06945795479537952795BA95C9F7CF
S1130CF0620F731F841F951FA01D0895F894FFCFE2
S1130D0048656C6C6F0057616974696E6720666F23
S1130D1072200073746172740052656164792121D8
S1130D200053746172742121004C656674203A206A
S1130D30256420636D005269676874203A20256435
S1130D4020636D0047616D65204F76657221210037
S10F0D5053636F7265203A202564000094
S9030000FC
